:100000000C9416080C945D080C945D080C94872FD2
:100010000C945D080C945D080C945D080C945D08CC
:100020000C945D080C945D080C94CC1A0C94881AFE
:100030000C948E2C0C945D080C945D080C945D0857
:100040000C945D080C945D080C945D080C945D089C
:100050000C945D080C94311C0C945D080C945D08A4
:100060000C945D080C945D080C945D080C945D087C
:100070000C945D080C945D080C945D080C945D086C
:100080000C945D080C945D080C945D080C945D085C
:100090000C945D080C945D080C945D080C945D084C
:1000A0000C945D080C945D080C945D08000101013E
:1000B0000101010101010202020202020202020325
:1000C00003030303030303040404040404040505F5
:1000D00005050506060606060707070707080808B8
:1000E00008090909090A0A0A0B0B0B0C0C0C0D0D67
:1000F0000D0E0E0E0F0F0F101011111112121313FF
:100100001414151516161717181819191A1A1B1B77
:100110001C1D1D1E1E1F20202122222324242526D3
:1001200026272829292A2B2C2D2D2E2F303132320B
:10013000333435363738393A3B3C3D3E3F40414217
:10014000434445464748494A4C4D4E4F50515354FD
:10015000555658595A5B5D5E5F61626465666869B1
:100160006B6C6D6F7072737577787A7B7D7E808231
:10017000838587888A8C8E8F91939596989A9C9E7A
:10018000A0A2A3A5A7A9ABADAFB1B3B5B7BABCBE8A
:10019000C0C2C4C6C9CBCDCFD1D4D6D8DBDDDFE257
:1001A000E4E7E9EBEEF0F3F5F8FAFDFF7267626C55
:1001B00069676874206D6F6465205B4E4F454550DC
:1001C000524F4D5D3A2025750A007267626C69676F
:1001D0006874206D6F6465205B454550524F4D5DDE
:1001E0003A2025750A007267626C6967687420732B
:1001F000657420687376205B4E4F454550524F4DD5
:100200005D3A2025752C25752C25750A00726762CC
:100210006C696768742073657420687376205B4529
:100220004550524F4D5D3A2025752C25752C25756E
:100230000A007267626C69676874207261696E6235
:100240006F7720736574206873763A2025642C25B7
:10025000642C25642C25750A00FFAA7F554072671F
:10026000626C696768742064697361626C65205BA5
:100270004E4F454550524F4D5D3A207267626C6952
:100280006768745F636F6E6669672E656E61626C26
:1002900065203D2025750A007267626C6967687485
:1002A0002074696D657220656E61626C65642E0AEA
:1002B000007267626C696768742074696D6572208A
:1002C00064697361626C652E0A0022232526282941
:1002D0002A2C2D2F3032333536383A3B3D3E4042C2
:1002E000434547494A4C4E5051535557595A5C5E05
:1002F0006062646668696B6D6F71737577797B7D19
:100300007F81838587898A8C8E90929496989A9C17
:100310009E9FA1A3A5A7A8AAACAEAFB1B3B4B6B82F
:10032000B9BBBCBEBFC1C2C3C5C6C7C9CACBCCCD91
:10033000CED0D1D2D2D3D4D5D6D7D7D8D9D9DADA6C
:10034000DBDBDBDCDCDCDCDCDDDDDDDDDCDCDCDCEC
:10035000DCDBDBDBDADAD9D9D8D7D7D6D5D4D3D220
:10036000D2D1D0CECDCCCBCAC9C7C6C5C3C2C1BFFE
:10037000BEBCBBB9B8B6B4B3B1AFAEACAAA8A7A562
:10038000A3A19F9E9C9A98969492908E8C8A89871E
:100390008583817F7D7B79777573716F6D6B6968FC
:1003A000666462605E5C5A5957555351504E4C4AD0
:1003B0004947454342403E3D3B3A3836353332307B
:1003C0002F2D2C2A2928262523226F6C65645F6F28
:1003D0006E20636D64206661696C65640A0000AF1D
:1003E0007267626C696768742064697361626C65C6
:1003F000205B454550524F4D5D3A207267626C69F3
:100400006768745F636F6E6669672E656E61626CA4
:1004100065203D2025750A007267626C6967687403
:1004200020656E61626C65205B454550524F4D5DA5
:100430003A207267626C696768745F636F6E6669A1
:10044000672E656E61626C65203D2025750A00721D
:1004500067626C6967687420746F67676C65205B9E
:10046000454550524F4D5D3A207267626C6967682E
:10047000745F636F6E6669672E656E61626C65207E
:100480003D2025750A0044454255473A206469736A
:1004900061626C65642E0A0044454255473A206506
:1004A0006E61626C65642E0A0000001E001F002051
:1004B0000021002200000014001A00080015001797
:1004C00000000004001600070009000A0000001DDB
:1004D000001B0006001900050000000000E00001FC
:1004E000512A62A8000000270026002500240023CE
:1004F000000000130012000C0018001C0000003364
:10050000000F000E000D000B000000380037003611
:10051000001000110000000000E40028422C7200CE
:100520000000001E021F0220022102220200000021
:1005300000000000000000000000002E0231002F2B
:100540000230022D02000000000000000000000048
:100550000000000000010001000100000000000098
:100560000035022502240223020000310230022F4E
:10057000023500000000002700270226022E002D71
:10058000000000380237023602310034000000005B
:1005900000010028000100000000003A003B003C80
:1005A000003D003E0000002B0046002900E2004C08
:1005B000000000390000000000E300000000007AA5
:1005C000007B007C007D00000000000000010001B5
:1005D0000001000100000043004200410040003FD4
:1005E00000000009000600520005004B0000004C0E
:1005F000004F00510050004E0000000000080000B5
:1006000000070000000000000001000100010001DF
:1006100000000000000000000000000000005C007E
:100620000000000100015D000000000000015D000D
:1006300000000000000000000000000000000000BA
:1006400000010001000100010001000000000000A5
:10065000000000000000000000000000000000009A
:10066000000000000000000000A900A800AA00008F
:100670000000000000AB00AE00AC00000001000173
:100680000001000100010000000A0025303258205E
:10069000006B6579626F6172645F7265706F72740E
:1006A0003A2000646973706C61795F73657475706A
:1006B00032206661696C65640A0000DA0281FFD944
:1006C000F1DB20A4A62EAF646973706C61795F665C
:1006D0006C6970706564206661696C65640A00000D
:1006E000A0C06F6C65645F696E697420636D64207F
:1006F0006E6F726D616C20726F746174696F6E20C1
:100700006661696C65640A0000A1C86F6C65645F0E
:10071000696E697420636D6420736574203120668E
:1007200061696C65640A0000AED580A81FD30040E3
:100730008D1420007267626C696768745F636F6E06
:100740006669672E7370656564203D2025640A0024
:100750007267626C696768745F636F6E6669672E43
:1007600076616C203D2025640A007267626C6967BF
:1007700068745F636F6E6669672E736174203D20D5
:1007800025640A007267626C696768745F636F6EE4
:100790006669672E687565203D2025640A007267CA
:1007A000686C696768745F636F6E6669672E6D6FEA
:1007B0006465203D2025640A007267626C69676881
:1007C000745F636F6E6669672E656E61626C65202B
:1007D0003D2025640A007267626C696768745F6314
:1007E0006F6E66696720454550524F4D3A0A007258
:1007F00067626C696768745F696E697420726762AA
:100800006C696768745F636F6E6669672E6D6F648D
:1008100065203D20302E205772697465206465661E
:1008200061756C742076616C75657320746F2045FA
:100830004550524F4D2E0A007267626C69676874AA
:100840005F696E6974206565636F6E6669672069AC
:1008500073206E6F7420656E61626C65642E0A0091
:100860007267626C696768745F696E69742073741B
:10087000617274210A007267626C696768745F69EB
:100880006E69742063616C6C65642E0A000A002531
:10089000303862003A200025303258000A722F6347
:1008A0002030313233343536370A007267626C6972
:1008B00067687420616E696D6174696F6E20746918
:1008C000636B207265706F727420746F20736C613B
:1008D00076650A001E0F0500047F3F1F6432146412
:1008E0003214783C1E1E140A050A0A00556E64650F
:1008F00066004D6F76650A0053796D0A0042617398
:10090000650A004C41594552000A0A0000726F6A9C
:100910006574000A0A0080818283848586878889BD
:100920008A8B8C8D8E8F9091929394A0A1A2A3A478
:10093000A5A6A7A8A9AAABACADAEAFB0B1B2B3B4EF
:10094000C0C1C2C3C4C5C6C7C8C9CACBCCCDCECF2F
:10095000D0D1D2D3D4006F6C65645F72656E64656C
:100960007239302064617461206661696C65640A63
:10097000006F6C65645F72656E646572206461749B
:1009800061206661696C65640A006F6C65645F7202
:10099000656E646572206F666673657420636F6D43
:1009A0006D616E64206661696C65640A006F6C65D8
:1009B000645F6F666620636D64206661696C656460
:1009C0000A0000AE0A0025303258006B6579626F6C
:1009D0006172645F7365745F6C65643A20005B7379
:1009E0005D004B6579626F6172642073746172742B
:1009F0002E0A005B435D005B445D005B535D005B62
:100A0000575D005B525D000631FF0974A101097555
:100A1000150026FF0095207508810209761500262D
:100A2000FF00952075089102C005010906A1010586
:100A30000719E029E7150025019508750181029540
:100A400001750881010507190029FF150026FF001F
:100A50009506750881000508190129059505750198
:100A60009102950175039101C00902420002010043
:100A7000A0FA09040000010301010009211101008D
:100A8000012240000705810308000A090401000251
:100A90000300000009211101000122220007058244
:100AA00003200001070502032000011201100100CC
:100AB00000000832FC87020100010200010C035310
:100AC000006F0066006C00650000001A034A006FAA
:100AD000007300650066004100640061006D006302
:100AE0000069006B0000000403090400000000001E
:100AF000003E5B4F5B3E003E6B4F6B3E001C3E7CFE
:100B00003E1C00183C7E3C18001C577D571C001CE6
:100B10005E7F5E1C0000183C180000FFE7C3E7FF83
:100B200000001824180000FFE7DBE7FF0030483A18
:100B3000060E00262979292600407F05050700407A
:100B40007F05253F005A3CE73C5A007F3E1C1C08AD
:100B500000081C1C3E7F0014227F2214005F5F00EF
:100B60005F5F0006097F017F00006689956A00606B
:100B7000606060600094A2FFA2940008047E0408F4
:100B80000010207E20100008082A1C0800081C2ADB
:100B90000808001E10101010000C1E0C1E0C003057
:100BA000383E383000060E3E0E0600000000000001
:100BB0000000005F000000000700070000147F1421
:100BC0007F1400242A7F2A1200231308646200364F
:100BD0004956205000000807030000001C22410075
:100BE000000041221C00002A1C7F1C2A0008083E2D
:100BF000080800008070300000080808080800009D
:100C000000606000002010080402003E5149453E8B
:100C10000000427F40000072494949460021414995
:100C20004D33001814127F10002745454539003C0C
:100C30004A494931004121110907003649494936DD
:100C400000464949291E00000014000000004034FD
:100C500000000000081422410014141414140000B1
:100C600041221408000201590906003E415D594E17
:100C7000007C1211127C007F49494936003E4141F7
:100C80004122007F4141413E007F49494941007F67
:100C900009090901003E41415173007F0808087F9E
:100CA0000000417F4100002040413F01007F0814C7
:100CB0002241007F40404040007F021C027F007FB5
:100CC0000408107F003E4141413E007F09090906AA
:100CD000003E4151215E007F0919294600264949FD
:100CE00049320003017F0103003F4040403F001FA5
:100CF0002040201F003F4038403F00631408146329
:100D0000000304780403006159494D4300007F410A
:100D1000414100020408102000004141417F0004CD
:100D20000201020400404040404000000307080068
:100D3000002054547840007F28444438003844440C
:100D4000442800384444287F003854545418000084
:100D5000087E09020018A4A49C78007F0804047887
:100D60000000447D4000002040403D00007F1028EE
:100D700044000000417F4000007C04780478007C3F
:100D80000804047800384444443800FC182424182B
:100D90000018242418FC007C08040408004854545B
:100DA00054240004043F4424003C4040207C001CA8
:100DB0002040201C003C4030403C00442810284487
:100DC000004C9090907C004464544C4400000836E1
:100DD00041000000007700000000413608000002DA
:100DE00001020402003C2623263C00000000000013
:100DF00000404040F0F8F8FF38FFF8F83FF8F8FFFF
:100E000038FFF8F8F040404000000000000080C0CB
:100E1000C0C0800000C0C08000000080C0C000C012
:100E2000C0000080C0C00000000000C0C0C0C0C042
:100E300000C0C00000000000000000000000000032
:100E400000000000000000000000000000000000A2
:100E50000000000000000000000000000000000092
:100E600000000000000000000000C0F0F8FC3E1E82
:100E700006010000007F4141417F007F4141417FE9
:100E8000000080C0E07E5B4F5BFEC00000C000DC65
:100E9000D7DEDEDED7DC00C000000000000000006E
:100EA0000000000000000000000000000000000042
:100EB00000494949FFFFFFFFE0DFBFBF00BFBFDFC1
:100EC000E0FFFFFFFF49494900000000001F3F60AD
:100ED00060E0BF1F007F7F071E381E077F7F007FF7
:100EE0007F0E1F3B716000000000007F7F0C0C0C28
:100EF000007E7E007F7E0303007F7E03037E7E03F1
:100F0000037F7E000F3E703C063C703E0F00327B3C
:100F100049493F7E007F7E0303001E3F69696F26BB
:100F200000000000000000000000030F1F3F3C789D
:100F300070600000007F4141417F007F4141417F5F
:100F400000307B7F7830202030787F3B0003000F1B
:100F50007F0F0F0F7F0F0003000000000000000054
:100F60000000000000000000000000000000000081
:100F700000010101070F0F7F0F7F0F0F7E0F0F7F03
:100F80000F7F0F0F070101010000000000000000AB
:100F9000000001010000000000000000000000004F
:100FA0000000000000000000000000000000000041
:100FB0000000000000000000000000000000000031
:100FC0000000000000000000000000000000000021
:100FD0000000000000000000000000000000000011
:100FE0000000000000000000000000000000000001
:100FF00000000000000000000000000000000000F1
:1010000000000000000000000000000000000000E0
:1010100000000000000000000000000000000000D0
:1010200000000000000000000000000011241FBEAE
:10103000CFEFDAE0DEBFCDBF04B603FE27C080915C
:101040002E0590912F05A0913005B0913105873084
:10105000904BA740B04BD1F410922E0510922F0563
:10106000109230051092310514BE84B7877F84BF7B
:101070000FB6F894A8958091600088618093600015
:10108000109260000FBEE0E0F8E3099511E0A0E0E7
:10109000B1E0EEE9F4E602C005900D92A039B10787
:1010A000D9F725E0A0E9B1E001C01D92AE32B20748
:1010B000E1F70E94BB250C9415320C940000FF93BD
:1010C000EF93E0919001F0919101309709F009952B
:1010D000EF91FF910895FC018591803011F0EFDFD1
:1010E000FBCF0895FF27E0E230E247FF0CC04195B7
:1010F00097FF09C0EDE26095709580959095611D10
:10110000711D811D911D27FF02C0219530E350E222
:10111000AA27660F771F881F991FAA1FA41710F010
:10112000A41B63955A95A9F7AA3008F0A95FA05DA2
:10113000AF93F395611571058105910541F7ED3286
:1011400011F4EF93F395F21718F43F93F395FBCF57
:101150008F91B5DFFA95E1F70895E991F9918591BD
:10116000803021F0853219F0AADFF9CF089520E010
:10117000E89455915532C1F3503311F46894559168
:101180005A3348F4505390F3220F022E220F220FAD
:10119000200D250FF4CF0EF42195899199915336A6
:1011A00019F3533729F1533559F1BC018827992791
:1011B000E8945C3621F4899199916894559154365C
:1011C00039F446EF7EF077FF0DC08FEF9FEF0AC036
:1011D00055374AE039F0583540E121F0523642E0C7
:1011E00009F00895FF93EF937DDFEF91FF91B7CF63
:1011F000FF93EF93FC0181918030B9F360DFFBCF67
:10120000FF93EF9368DFF1CFDF93CF93CDB7DEB7D6
:101210002596A3DFCF91DF910895E8EDF0E080817E
:101220008E7F80831092E2001092DA001092E1002B
:10123000A0EEB0E08C9181608C9380818F77808369
:1012400019BCA7EDB0E08C918E7F8C9380818F7E4E
:1012500080831092F50208952091E4003091E5001A
:1012600095E6A9012091EC00822F817020FF06C035
:101270008091E80080FF06C080E008952091E8009A
:1012800022FD1AC080910203882389F0853089F0FD
:101290008091EB0085FD0FC02091E4003091E500C6
:1012A00042175307F9F29150E1F684E0089582E085
:1012B000089583E0089581E00895EF92FF920F93DF
:1012C0001F93CF937C010E942C09C82F811119C054
:1012D00008E010E08091E80085FD0BC08091E800F7
:1012E0008E778093E8000E942C09882399F3C82FF9
:1012F00008C0F70181917F018093F100015011092D
:1013000049F78C2FCF911F910F91FF90EF90089587
:101310008091040387FF13C08091E80082FF06C01C
:101320008091E8008B778093E80004C080910203ED
:101330008111F2CF0895809102038823D9F380911F
:10134000E80080FFF8CF8091E8008E77ECCF982FEF
:101350009093E900242F762F50E0891731F0709197
:10136000EC002091ED005091F00021FD07C09F5F3F
:10137000973071F78093E90081E008953091EB0098
:101380003E7F3093EB003091ED003D7F3093ED00D8
:101390003091EB0031603093EB007093EC002093C0
:1013A000ED005093F0002091EE0027FDE0CF80E0AB
:1013B0000895CF92DF92EF92FF920F931F93CF93F6
:1013C000DF93C8EDD0E088818F7E8883E7EDF0E081
:1013D00080818160808384E082BF81E08093F50218
:1013E00088818E7F888302EE10E0F80110821092CF
:1013F000DA0081EEC82ED12CF601108288818F7719
:10140000888388818068888388818F7D888319BCE0
:101410001092020310920303109201031092000332
:1014200090EEE92EF12CF70180818B7F80838881FB
:101430008160888342E060E080E00E94A709F601B5
:1014400080818E7F8083F8018081816080838081AC
:1014500088608083F70180818E7F808388818061AE
:101460008883DF91CF911F910F91FF90EF90DF90D4
:10147000CF900895FC0180910A0390910B03861789
:101480009707A0F06115710529F49091E8009E7707
:101490009093E80090E06115710551F4911108C036
:1014A0008091E80082FF34C080E00895BC01F2CF53
:1014B000809102038823C1F18530C1F18091E80059
:1014C00083FD30C08091E80082FDEACF8091E80082
:1014D00080FFE1CF8091F3002091F200382F611559
:1014E000710519F02830310558F091E028303105A8
:1014F00009F090E02091E8002E772093E800CBCF10
:1015000081918093F100615071092F5F3F4FE7CFC8
:1015100080910203882341F0853041F08091E800FA
:1015200083FFBECF81E0089582E0089583E00895AF
:1015300008950895089508958091F70208952FB7AA
:10154000F89460917F027091800280918102909165
:1015500082022FBF089580917A02811110927A023F
:101560000895E92FEE0FE90FEE0F8E0F982F977069
:1015700086958695869525E0829FF0011124E25B91
:10158000FD4F50E040E080E0219130E0092E02C0A4
:10159000369527950A94E2F721703327042E01C06F
:1015A000220F0A94EAF7822B4F5F5F4F45305105B7
:1015B00059F70895E92FEE0FE90FEE0F8E0F982FD0
:1015C000977041E001C0440F9A95EAF78695869599
:1015D000869595E0899FF0011124E25BFD4F30E094
:1015E00020E070E05191DF011197CB01022E02C083
:1015F000969587950A94E2F78170819585278423D3
:1016000085278C932F5F3F4F2530310559F708957B
:1016100080914D0290911C02981301C008958F5F34
:101620008770FACF0C949F0AE0919802F09199028A
:10163000309721F00190F081E02D099480E0089529
:10164000FA01811101C0FB0109948091AE02982F2B
:101650009E7F29F4817082608093AE020895863562
:10166000E8F381708465F8CFAF92BF92DF92EF927A
:10167000FF920F931F93CF93DF93082F162FE9014B
:10168000E42FF0E0E455FF4F611110C0E4915E2FAC
:101690004E2F4983E8835A83DF91CF911F910F9199
:1016A000FF90EF90DF90BF90AF900895E62EF12C61
:1016B0004491D42EE42FF0E026E0829FC001112453
:1016C0002FEF30E0B9010E94AE30802F90E0880FFC
:1016D000991F55E5569FD001579FB00D11248A1BC5
:1016E0009B0B982F990F890F5901AE18BF08AE9E1A
:1016F000D001AF9EB00DBE9EB00D11245B2F189F80
:1017000080011124012F11275901A01AB10AAE9EA0
:101710008001AF9E100DBE9E100D11245901A81A14
:10172000B108AE9CC001AF9C900DBE9C900D1124E1
:10173000892F9927281B390B2E9FC0012F9F900DB1
:101740003E9F900D1124E92F62307105A1F050F4F5
:101750006115710509F49DCF6130710581F0EB2FA2
:10176000512F97CF6430710569F080F066307105B4
:1017700009F48FCFF4CFE42F4B2F592F8ACFE42FCA
:10178000412F87CFEB2F542F492F83CF4B2F5D2D28
:10179000E12F7FCFF894E82FE295EF70F0E031A1D0
:1017A000282F2F7081E090E001C0880F2A95EAF77A
:1017B000982F9095932391A392A1892B82A378943B
:1017C00008959091940292FF06C0282F2871283026
:1017D000F9F4877F846093FF06C0282F2871283191
:1017E000F1F4877E84612091950220FF06C0382F96
:1017F00038713830D9F4877F816021FF06C0282FE7
:1018000028712831D1F4877E816194FD877E089507
:10181000282F24712430F9F68B7F8860DCCF282FA5
:101820002471243101F78B7E8861DDCF382F31712F
:10183000313019F78E7F8860E0CF282F2171213158
:1018400021F78E7E8861E1CFCF93DF93972F70E0F1
:1018500026E0929F600D711D1124FB013CE3839FE4
:10186000E00DF11D1124EE0FFF1FE755FB4FC59151
:10187000D491CE01C238D10591F1C0F5C133D10563
:1018800009F494C028F5C932D10509F488C0CA32D8
:10189000D10509F492C0C11523E5D20708F0ADC007
:1018A000C11532E5D30708F00FC1C11520E2D207F8
:1018B00008F090C0C11531E0D30730F5C53AD10525
:1018C00008F082C0C430D105F8F42197E9F040C097
:1018D000C533D10509F45CC0C933D105E1F62091C7
:1018E0009402237089F080EE90E00EC0C33ED105D3
:1018F00091F168F4C03ED105F9F0C23ED10559F628
:101900002091940222FD20C0DF91CF910895C63E20
:10191000D10561F1C73ED10581F1C43ED10509F081
:10192000BACF2091950221FFEFCF8091940284FDE0
:101930000FC087EE90E0E8CF2091940220FDF3C025
:101940003091950230FFE0CF83EE90E024FFDCCFB2
:1019500090E080E0D9CF2091940222FDE7C0309141
:10196000950230FDC0CF24FFCFCFF2CF209194025B
:1019700023FFCACF24FDECCFDCCF2091940223FDBE
:10198000D8C03091950231FFEECF84EE90E0BCCF0D
:101990002091940225FFB8CF89E290E0B5CF209145
:1019A000940225FFB1CF85E390E0AECF2091940261
:1019B00026FFAACF8AE290E0A7CF2091940226FFCB
:1019C000A3CF81E390E0A0CFC05ED109289708F4AF
:1019D0009BCFBECFC11581E5D80708F070C0C115F7
:1019E00090E5D90708F04FC0C11520E4D20708F4EC
:1019F000AFCFCE019F70906A87CFC11536E5D30770
:101A0000F0F4C11585E5D80708F076C0C11594E556
:101A1000D90708F06CC09E012370332781E090E065
:101A200002C0880F991F2A95E2F7C695C69530E245
:101A3000C39FE00111248C2B9D2B9A6865CFC115A3
:101A40002AE5D20778F4C11539E5D30708F05EC05E
:101A5000C11588E5D80708F47BCF9C2F8827806FB5
:101A6000906A52CFCE0190568115904208F070CF07
:101A70008D2F8F710E94E10B90E0982F8827882787
:101A80009F718C2B41C09E01E4E036952795EA9525
:101A9000E1F723708C2F86958695837030E2839FC3
:101AA000C0011124922BC37021E030E002C0220F4C
:101AB000331FCA95E2F7822B932B9C6825CF9C2F6E
:101AC0008827816F906A20CF9E012370332781E0A1
:101AD00090E002C0880F991F2A95E2F7C695C69537
:101AE00020E2C29FE00111248C2B9D2BE6CF9C2F7E
:101AF0008827846F906A08CF8C2F0E94E10B90E0BA
:101B0000982F882788279F719062FECE8C2F8F7028
:101B10000E94E10B34E0D695C7953A95E1F7CF7076
:101B20009C2F9069F1CE89E390E0EECE82EE90E0BA
:101B3000EBCE86EE90E0E8CEBF92CF92DF92EF92AE
:101B4000FF920F931F93CF93DF938C01C090BB0242
:101B5000D090BC02E090BD02F090BE0280917B026A
:101B600090917C02A0917D02B0917E02C82AD92A70
:101B7000EA2AFB2ACFE1D0E0BC2ED701C6010C2E09
:101B800004C0B695A795979587950A94D2F780FDDE
:101B90000EC0219788F7B12C8B2DDF91CF911F912B
:101BA0000F91FF90EF90DF90CF90BF900895B80114
:101BB0008C2F0E94240C019761F3EECFCF93DF931B
:101BC000EC010E949C0DBE01DF91CF910C94240C7E
:101BD0000E94DE0D292F2F7092959F7092509E309B
:101BE00078F4E92FF0E0E95EFD4C0C94D630803FAC
:101BF00019F020F4883E20F481E00895843FE1F359
:101C000080E00895883EC0F3813FD1F7F5CF822F61
:101C10008695869586950895829590E09C01220F81
:101C2000331F220F331F2C7C9595879595958795AB
:101C30008373282B30E0C901880F991F8A7A359564
:101C400027952575822B0895CF93DF93682F81E028
:101C50006A3019F06D3029F480E0DF91CF910C9457
:101C6000B30E809115059091160526E0FC01AFE0BA
:101C7000B5E001900D922A95E1F7603E08F45AC054
:101C800026E0FC0111922A95E9F7C0911505D09143
:101C9000160546E050E0BE018FE095E00E945D3100
:101CA0009E012F503340892B41F1C90145E09695A3
:101CB00087954A95E1F741E050E0BA0102C0660F0E
:101CC000771F8A95E2F7CB0160910D0370910E03A7
:101CD000862B972BB9016B5F7F4FE5E07695679573
:101CE000EA95E1F702C0440F551F6A95E2F7842B8D
:101CF000952B90930E0380930D032A5F3F4F4091E5
:101D00000C03642F70E0C9010E94AE30481B4630BE
:101D100010F4240F311D211572E0370710F030E068
:101D200020E0215F3C4F3093160520931505DF918D
:101D3000CF910895F6E06F9FB00111246551754F62
:101D400046E050E00E944731A0CFCF93DF93EC01F3
:101D5000FE018491811103C0DF91CF9108950E940B
:101D6000240E2196F5CFCF93382FE0911505F091F1
:101D70001605EF50F34020910C03622F70E0CF0165
:101D80000E94AE30281B822F332361F066E00E9450
:101D90009430C82FC15010F4CF91089580E20E9472
:101DA000240EF8CF9F01280F311D2115324018F065
:101DB00080E0F0E0E0E08E0F9F2F911D815F9C4F4F
:101DC0009093160580931505E7CFCF92DF92EF929F
:101DD000FF920F931F93CF93DF936C017B0164E617
:101DE00070E088E70E94EE2DEC0197FD12C010E034
:101DF00000E0F601E00FF11F849164E670E00E94BC
:101E00004A2EEC01892B29F40F5F1F4F0E151F0579
:101E100081F70E94CD2ECE01DF91CF911F910F91BE
:101E2000FF90EF90DF90CF900895CF93C091E5029F
:101E30008091E6028823F1F00E949F0A605A754162
:101E40008F4F9F4F6093E1027093E2028093E30211
:101E50009093E402C1110CC062E070E08EED93E05B
:101E60000E94E50E892B49F08AEC93E00E946B08F2
:101E7000C091E5028C2FCF91089581E08093E50217
:101E8000F7CFEF92FF920F931F93CF93DF93809141
:101E9000790290917802892B90917702892B809317
:101EA000920190917A02992391F0892B809392016B
:101EB00020E084E991E0FC013191CF0131112F5FE5
:101EC000F1E08A399F07B9F721110E94AB0AE0912E
:101ED0009802F09199023097C9F10280F381E02DC8
:101EE00082E991E009958091E80282FF2FC080FF8E
:101EF00004C081E996E00E946B08C2E9D1E08AE95A
:101F0000E82E81E0F82E0BE816E08091E80280FFD1
:101F10000BC088811F928F931F930F930E94040917
:101F20000F900F900F900F902196EC16FD0669F719
:101F30008091E80280FF0AC089E896E0DF91CF91A6
:101F40001F910F91FF90EF900C946B08DF91CF9150
:101F50001F910F91FF90EF90089510927902E4E99C
:101F6000F1E086E0DF011D928A95E9F71092780290
:101F7000109277020C94410F1F93CF93DF93CDB74C
:101F8000DEB7AA970FB6F894DEBF0FBECDBF84E0D0
:101F900093E02091F100FC012193CF01F3E08C301C
:101FA0009F07B9F780910503833009F46FC0B8F437
:101FB000813009F446C0823009F4B0C08091E80055
:101FC00083FF7CC280910403909105039A3008F04E
:101FD00075C2E92FF0E0EB5DFD4C0C94D6308A30F1
:101FE00009F48BC08B3009F46EC0893039F78091C9
:101FF0000403813219F78091080390910903892B1A
:10200000E9F68091E800877F8093E8008091E800FE
:1020100082FF37C09091F3008091F200029729F47B
:102020008091F1008B7F813021F48091F1008093C9
:10203000F7028091E8008B778093E8000E9488097E
:10204000BDCF80910403813A09F0B8CF8091E800B8
:10205000877F8093E8008091080390910903892B82
:1020600061F468E088EF92E070E00E943A0A8091A3
:10207000E8008B778093E800A1CF60E090E080E0FB
:10208000F3CF809102038111C1CF98CF80910403D7
:10209000813A09F093CF8091080390910903892B2D
:1020A00009F08CCF8091E800877F8093E8008091D1
:1020B000E80080FFFCCF80912B018093F10080919C
:1020C000E8008E77B9CF80910403813209F076CF92
:1020D0008091080390910903892B09F06FCF8091BB
:1020E000E800877F8093E8000E94880980910603BA
:1020F00080932B010E94AD0F61CF80910403813248
:1021000009F05CCF8091E800877F8093E8000E940F
:102110008809809107038093F60250CF80910403D1
:10212000813A09F04BCF8091E800877F8093E800E7
:102130008091E80080FFFCCF8091F602BECF80380E
:1021400099F0823809F0BAC1809108038F70873006
:1021500008F0B4C18093E9008091EB0085FB8827EB
:1021600080F91092E90006C080910003909101036C
:10217000911182609091E800977F9093E80080939E
:10218000F1001092F1008091E8008E7793C18823CE
:1021900009F481C1823009F091C180910603811157
:1021A00084C1809108038F702FEF280F263008F02C
:1021B00085C18093E9002091EB0020FF76C1933028
:1021C00031F48091EB0080628093EB006EC19091BE
:1021D000EB0090619093EB0021E030E001C0220F12
:1021E0008A95EAF72093EA001092EA008091EB00CA
:1021F0008860EACF811162C1109106031F77809138
:10220000E3008078812B8093E3008091E800877F52
:102210008093E8000E9488098091E80080FFFCCF4D
:102220008091E30080688093E30082E0111183E0F5
:102230008093020343C18058823008F03FC120914F
:102240000603309107032C3D83E03807A1F583E0B6
:102250008A838AE289834FB7F894DE01139620E0DF
:102260003EE051E2E32FF0E050935700E49120FF6D
:1022700003C0E295EF703F5FEF708E2F90E0EA3081
:10228000C0F0C7968D939D932F5F243159F74FBFB0
:102290008091E800877F8093E8006AE270E0CE01D9
:1022A00001960E943A0A8091E8008B778093E800BB
:1022B00005C1C096E7CF4091080350910903832FD1
:1022C00099278330910501F160F48130910509F47B
:1022D00071C0029709F0F2C082E490E0E9E6FAE00A
:1022E00031C08132910509F459C08232910509F05B
:1022F000E5C04115510509F467C04130510509F0A9
:10230000DDC0E7E0FAE01EC033272130310509F4D3
:102310003DC02115310561F02230310509F0CEC0F4
:10232000EDEBFAE0E4918E2F90E0EDEBFAE007C0E0
:10233000E7EEFAE0E4918E2F90E0E7EEFAE0009706
:1023400009F4BCC02091E800277F2093E800209189
:102350000A0330910B038217930708F49C0140E0B5
:1023600021153105B1F5411134C08091E80082FD9D
:102370009ACF80910203882309F495CF853009F420
:1023800092CF8091E80083FFF0CF8DCFEBECFAE0A5
:10239000E4918E2F90E0EBECFAE0D1CF411551059E
:1023A00071F04130510509F089C089E090E0E4E91D
:1023B000FAE0C8CF82E190E0EBEAFAE0C3CF89E02F
:1023C00090E0EBE7FAE0BECF80E490E0E9E2FAE0EB
:1023D000B9CF80910203882309F465CF853009F4D1
:1023E00062CF8091E80083FD5ECF8091E80082FD9E
:1023F000BCCF8091E80080FFB3CF9091F300809133
:10240000F2002115310519F08830910550F041E0B6
:10241000089709F040E08091E8008E778093E8000B
:102420009FCF44914093F10031962150310901969C
:10243000E8CF803809F042C08091E800877F809320
:10244000E800809103038093F1009DCE811136C096
:1024500010910603123090F58091E800877F8093F9
:10246000E800109303030E948809112311F084E00F
:1024700005C08091E30087FDFACF81E080930203DD
:1024800042E061EC81E00E94A70942E261EC82E057
:102490000E94A70913C080910603813079F481E07E
:1024A000933009F080E0809301031092E90080915D
:1024B000E800877F8093E8000E9488098091E80007
:1024C00083FF0AC08091E800877F8093E8008091B5
:1024D000EB0080628093EB00AA960FB6F894DEBF03
:1024E0000FBECDBFDF91CF911F9108956093BB02C6
:1024F0007093BC028093BD029093BE02109278024A
:10250000109277020C94410F0F931F9341E050E01B
:1025100060E070E004C0440F551F661F771F8A9566
:10252000D2F7CB01BA016095709580959095009196
:10253000BB021091BC022091BD023091BE0260230B
:102540007123822393231F910F910C947612909103
:1025500076028095892380937602282F277071F464
:10256000282F082E000C330B9217130639F085958F
:10257000859585950E9484121092760208950F9396
:102580001F9341E050E060E070E004C0440F551F2D
:10259000661F771F8A95D2F78091BB029091BC028B
:1025A000A091BD02B091BE028A019B01082B192B9C
:1025B0002A2B3B2BC901B8011F910F910C94761265
:1025C00060937B0270937C0280937D0290937E02E5
:1025D00010927802109277020C94410F882341F0F8
:1025E0008095909179028923809379020C94410F10
:1025F0000895882339F090917902982B909379026D
:102600000C94410F0895882309F459C09CEF980F4A
:10261000913A78F4E4E9F1E02AE931E09191891303
:1026200003C0DF0111971C922E173F07B9F70C94D6
:10263000410F90E2980F983088F4877021E030E0E5
:10264000A90102C0440F551F8A95E2F7CA0180957F
:1026500090917902892380937902E9CF9BE5980FC5
:102660009330B0F48091120290911302892B39F1CA
:102670001092130210921202E0919802F0919902C6
:102680003097E9F00680F781E02D90E080E0099432
:10269000885A8731A0F48091140290911502892BF9
:1026A00071F01092150210921402E0919802F091CC
:1026B0009902309721F00084F185E02DE6CF08954E
:1026C0000F931F93CF93C82F882309F44AC08CEF30
:1026D0008C0F813AA8F504E911E0F8018191C8173F
:1026E00001F181E0EA39F807C9F7EFEF80E0D8019E
:1026F0009D918D01C91781F0EF3F19F4911101C02F
:10270000E82F8F5F863099F7EF3F31F00E2E000CE7
:10271000FF0BEE56FE4FC283CF911F910F910C9489
:10272000410FE4E9F1E08191C81303C0DF01119783
:102730001C92A1E0EA39FA07B1F70E94410FD5CF08
:1027400080E28C0F883068F4C77021E030E001C06F
:10275000220FCA95EAF780917902822B8093790241
:10276000DBCFCF911F910F9108951092B402809109
:10277000B50284608093B5028091E80280FF08C0B2
:1027800081EB92E09F938F930E9404090F900F902A
:102790000895CF9384E090E00E946A31C82F81E2CF
:1027A00090E00E946A31982F8C2FCF9108959FB7A7
:1027B000F8941092F3029FBF90910203943009F0B5
:1027C00048C02091E9002F703091EC00932F917058
:1027D00030FD90E8922B22E02093E9002091EB005D
:1027E00020FF34C02091EE0027FF30C020918302EB
:1027F000222321F02091E80025FF28C010928302B7
:1028000026E03091E80035FF14C08093F1008091FC
:10281000E80085FD27C08091E80080FFFCCF809113
:10282000E8008E778093E8009F709093E90080E045
:10283000089530910203343049F43091EB0035FDB6
:1028400005C0215041F481E0809383029F709093F2
:10285000E9008FEF0895EFE9FFE03197F1F700C04D
:102860000000CFCF8FB7F89421E02093F3028FBF01
:10287000DBCFCF93DF93EC0181E08093E9008FEF12
:102880009091E800815095FD06C095ED9A95F1F77D
:1028900000008111F5CF8091E80085FF14C050E061
:1028A00040E068E070E0CE010E945D098091E800A0
:1028B0008E778093E80088E0FE01A8EFB2E00190F7
:1028C0000D928A95E1F7DF91CF9108951F93CF93F1
:1028D000DF93182FEB010E9460138FE99FE00197AF
:1028E000F1F700C000002197C1F7812FDF91CF9150
:1028F0001F910C94031381110BC0662329F06AE029
:1029000070E08EE40C9466146AE070E08BE4FACF19
:10291000813051F4662321F06AE070E089EAF2CF59
:102920006AE070E08AEAEECF089560911301809129
:10293000AE0280FF20C08091120143E0849FC0015D
:1029400011248E559E4F539A2BB1277F3BB138608F
:102950005FB7F894FC01649FE00DF11D1124BF01E5
:1029600068177907D1F45FBF8FE594E00197F1F71D
:1029700000C000000895809114019091150123E09A
:10298000829FF0011124EE55FE4F8917A0F61182A7
:10299000108212828F5F3396F8CFFC014191CF01F4
:1029A000E8E03BB9000000C047FF2BB9440F00002E
:1029B00000C000C000C02BB900C0EA9591F7D0CF8D
:1029C0004F925F926F927F928F929F92AF92BF923F
:1029D000CF92DF92EF92FF920F931F93CF93DF93EB
:1029E000FC016280448081E08483EAECF2E0749030
:1029F000E9E4F3E0E491812C75E0972EF2E0CF2E2C
:102A0000DD24D394AA24AA94B12C55245A94E7190E
:102A10000E2F10E080911601881690F0DF91CF9173
:102A20001F910F91FF90EF90DF90CF90BF90AF90EC
:102A30009F908F907F906F905F904F900C94951423
:102A4000E82CF12C82E0861568F09E9CF0019F9C9A
:102A5000F00D1124E453FE4F8091AF0280838091EA
:102A6000B0028183411023C09E9CF0019F9CF00D19
:102A70001124E453FE4F1382128220911401C701E6
:102A8000820F911D9C01220F331F280F391F2E55D5
:102A90003E4F9E9CF0019F9CF00D1124E453FE4F8D
:102AA0004281618180810E94340B8394B3CF9E9CCC
:102AB000E0019F9CD00D1124C453DE4F8B818823ED
:102AC000E9F081508B83859DC00111246C8170E0F9
:102AD0000E94AE30FB01FF27E653FD4F8491E82FA3
:102AE000E719E59DC0011124B8010E94AE30809124
:102AF000B102689FB00111247A83BFCF0E943731A1
:102B00002091B102269521582C9DA0012D9D500D9C
:102B10001124452F5527841795070CF0AECF82E07E
:102B2000861588F40E943731B5010E94C23088832F
:102B30000E9437312091B0022695622F70E00E94EA
:102B4000C230280F29839E9CF0019F9CF00D112418
:102B5000E453FE4F12828091B102893C58F088EC18
:102B60009E9CF0019F9CF00D1124E453FE4F848342
:102B7000838383CF8431A0F784E1F2CFEF92FF9279
:102B80001F93CF93DF93EC0110E0EE24EA94F12C35
:102B900060911601161770F00E9495149A818C812D
:102BA00090FF27C08F5F8C83DF91CF911F91FF90A3
:102BB000EF90089520911401422F410F5527551F82
:102BC000CA019A01220F331F280F391F2E553E4F7D
:102BD00070E0C7010E94C230962F8C814091B102F3
:102BE0006091B002199F800D11240E94340B1F5F69
:102BF000CFCF8150D8CF8F929F92AF92BF92CF927A
:102C0000DF92EF92FF920F931F93CF93DF93EC012C
:102C10008A81BB24BA9480FD02C0BB24B394A090E7
:102C200016018C81811109C081E0B81228C08FEF94
:102C30008A0D80939F0181E08C83F12CE12C4EE082
:102C4000942EEA14F8F00E94951480919F0191E06F
:102C5000B9125FC0811158C08091160181508093D4
:102C60009F011C82DF91CF911F910F91FF90EF90F8
:102C7000DF90CF90BF90AF909F908F90089510926B
:102C80009F01D9CF009114010E0D1F2D111DC801F8
:102C9000880F991F080F191F0E551E4FF80111823A
:102CA0001082128234E0C32ED12C812C80919F019E
:102CB000880D8F302CF1692D0E94A030892F082EAD
:102CC000000C990B8E159F0591F48091B1028C9D9B
:102CD000A0018D9D500D112455954795559547950B
:102CE00098016091B0028091AF020E94340B8B0C6E
:102CF000F1E0CF1AD108D1F68FEFE81AF80AA1CF88
:102D000087FFDDCF8A0DDBCF815080939F01BC828E
:102D1000A9CF90E001966091160170E00E94C23048
:102D200080939F018C839ECFEF92FF920F931F930E
:102D3000CF93DF93EC018C81811109C081E08C83FA
:102D40001092A00192E09093100180930F01809166
:102D500014019091150123E0829FF0011124EE559A
:102D6000FE4F891768F110E003E060911601161715
:102D700068F10E94951480910F012091A001280F05
:102D80002093A00190911001980F909310011916B3
:102D900054F4022E000C330B409116014150550B98
:102DA0002417350734F0819580930F01813009F4A1
:102DB0001C82DF91CF911F910F91FF90EF900895AA
:102DC0001182108212828F5F3396CBCFE12EF12CCD
:102DD00070E0C7010E94C23020911401820F482F79
:102DE00050E02091A001022E000C330BE216F306F6
:102DF000BCF020911001022E000C330B2E153F0564
:102E00007CF0809F900111242E553E4F4091B102DD
:102E10006091B0028091AF020E94340B1F5FA5CF7A
:102E2000FA01EE0FFF1FE40FF51FEE55FE4F118262
:102E300010821282F3CF8F929F92AF92BF92CF9265
:102E4000DF92EF92FF920F931F93CF93DF93EC01EA
:102E50004C81042F10E09801D8010E9406329B019A
:102E6000AC010E94D1314B015C01E0E2F0E0E01BDB
:102E7000F10BA5E5B0E0AC019B010E94D1316B01E3
:102E80007C019F01DF010E94DC309B01AC010E94AC
:102E9000DC319B01AC01280D391D4A1D5B1DC701AA
:102EA000B6010E94E431F22E822F90E039E23F1504
:102EB00060F143E0249F9001112435952795122F4E
:102EC000109500E085E5E82EEF18809116010817AF
:102ED00058F10E9495149C8181E0992319F0903259
:102EE00019F48FEF8093110180911101890F8C8368
:102EF000DF91CF911F910F91FF90EF90DF90CF90D6
:102F0000BF90AF909F908F90089525E530E0B90174
:102F1000681B790B9B01220F331F260F371F37FFCA
:102F2000CCCF2F5F3F4FC9CF8E2D01FD8F2D20912C
:102F30001401622F600F7727771F9B01220F331F29
:102F4000260F371F2E553E4F412F6091B0020E9431
:102F5000340B0F5FBACF0F931F93CF93DF93EC0126
:102F600010E000E0909116019017110609F06CF442
:102F70000E9495148C8190E00196817099278C8332
:102F8000DF91CF911F910F91089520911401A80115
:102F9000420F511D9A01220F331F240F351F2E554A
:102FA0003E4F4C816091B0028091AF029695901790
:102FB000110651F04CF0442349F04091B1020E94B7
:102FC000340B0F5F1F4FCECF4423B9F340E0F7CF50
:102FD0009091AE0290FF14C09091140120911501C0
:102FE00033E0939FF0011124EE55FE4F921710F03D
:102FF0000C9495148183608342839F5F3396F6CF50
:1030000008950F931F93CF93DF9300D00F92CDB706
:10301000DEB78C018091A10181110AC09E012F5F52
:103020003F4F4FEF6FEF0E94340B8A818093A101D5
:10303000F8016481613069F08091A10140E066236C
:1030400061F040E0623011F44091A10180E060E065
:1030500004C06091A10140E080E00E94E817F801FF
:10306000848190E0019663E070E00E94C230848326
:103070000F900F900F90DF91CF911F910F910895B6
:10308000CF93DF9300D00F92CDB7DEB79091AE0211
:1030900090FF0AC09E012F5F3F4F0E94340B4B816F
:1030A00069818A810E94E8170F900F900F90DF913D
:1030B000CF910895CF93DF93EC01EC81F0E0E653DC
:1030C000FD4F4491EEEAF2E0628181810E94401856
:1030D0008C818F5F8C83DF91CF910895CF93DF93A5
:1030E000EC01EEEAF2E0438162818C810E9440189B
:1030F0008C818F5F8C83DF91CF91089580919E01A9
:10310000811111C08091D80080618093D8008AE13C
:103110008A95F1F700C09091D900892F817090FFB6
:1031200082E080939E0181E090919E01913009F0B0
:1031300080E00895CF92DF92EF92FF926B017C01C5
:103140000E94250BB701A60188E090E0FF90EF9068
:10315000DF90CF900C9490314F925F926F927F925C
:103160008F929F92AF92BF92CF92DF92EF92FF9297
:103170000F931F93CF93DF9300D00F92CDB7DEB79D
:10318000182FF62E042F722E9091AE0290FF57C08A
:10319000E92FE695AE2FB0E0A45CBE4F8C918093F2
:1031A000B3029E7F923009F05EC09E012F5F3F4FB9
:1031B000812F0E94340B4B8169818A810E94E8171C
:1031C0008091AF02811308C08091B0028F1104C0BA
:1031D0008091B102801729F08091B50282608093BE
:1031E000B5021093AF02F092B0020093B1027720C3
:1031F00009F49CC06091AE027091AF028091B00260
:103200009091B1020E949A188091E80280FF17C045
:103210008091B1021F928F938091B0021F928F9381
:103220008091AF021F928F938DE092E09F938F93D6
:103230000E9404090FB6F894DEBF0FBECDBF0F90F9
:103240000F900F90DF91CF911F910F91FF90EF9012
:10325000DF90CF90BF90AF909F908F907F906F90B6
:103260005F904F900895823019F40091B102A8CF79
:10327000863019F41091AF02A3CF8930D9F3893188
:1032800009F09ECFE9518E2F8170682E8E2F809588
:103290008170E82EE695F0E0E75AFD4FC590D49096
:1032A000412CDD2492E3A92E92E0B92E6091160103
:1032B000461618F00E94951483CF842C912C8C9C78
:1032C000C0018D9C900D9C9C900D112470E00E947B
:1032D000AE30512E611028C0560E8091E80280FF5A
:1032E00011C0DF92CF921F92EF921F925F921F92B6
:1032F0004F92BF92AF920E9404090FB6F894DEBFBE
:103300000FBECDBF20911401820E911C9401220F9B
:10331000331F280D391D2E553E4F402F6F2D852D03
:103320000E94340B4394C2CF561AD7CF8091E80243
:1033300080FF85CF1F920F931F92FF921F921F93C2
:1033400086EE91E073CFEEEAF2E0438121E1421B89
:1033500008F440E021E0628181810C94AC18EEEA2F
:10336000F2E0438121E1420F08F44FEF21E0628156
:1033700081810C94AC18EEEAF2E0628121E1621BDB
:1033800008F460E021E0438181810C94AC18EEEAFE
:10339000F2E0628121E1620F08F46FEF21E04381E6
:1033A00081810C94AC18EEEAF2E0818121E0438146
:1033B000628188500C94AC18EEEAF2E0818121E041
:1033C00043816281885F0C94AC188091B20288239B
:1033D00019F081508093B2026091AE027091AF02F9
:1033E0008091B0029091B1020C949A188091B2022F
:1033F000833018F48F5F8093B2026091AE027091B7
:10340000AF028091B0029091B1020C949A18EEEA4A
:10341000F2E083E0808311828FEF828383831482C2
:10342000A3EBB2E012968C911297836012968C9364
:1034300060817181828193810C949A186BEE7EEF8A
:1034400090E080E00E949C3160E082E090E00E9489
:103450007E3160E083E090E00E947E3110927B023A
:1034600010927C0210927D0210927E0260E084E055
:1034700090E00E947E3160E081E290E00E947E3127
:1034800060E085E090E00E947E3160E086E090E0C0
:103490000E947E316FEF87E090E00E947E3140E035
:1034A00050E0BA0188E090E00E94903160E08DE049
:1034B00090E00E947E3140E050E0BA0188E190E067
:1034C0000E94903160E087E190E00E947E3140E010
:1034D00050E0BA018CE190E00E94903160E080E21F
:1034E00090E00E947E3140E050E0BA0188E190E037
:1034F0000E94903140E050E0BA018FE090E00E94DD
:10350000903140E050E0BA0183E190E00C949031BA
:103510001F920F920FB60F9211242F933F934F9348
:103520005F936F937F938F939F93AF93BF93CF934B
:10353000DF93EF93FF93D091E900DF708091EC006F
:10354000C82FC17080FDC0E81092E9008091F000A2
:10355000877F8093F00078940E94BC0F1092E9005E
:103560008091F00088608093F000CD2BCF70C093E5
:10357000E900FF91EF91DF91CF91BF91AF919F91C2
:103580008F917F916F915F914F913F912F910F900C
:103590000FBE0F901F9018951F920F920FB60F92AB
:1035A00011242F933F934F935F936F937F938F9348
:1035B0009F93AF93BF93EF93FF938091E10082FFBE
:1035C00015C08091E20082FF11C08091E1008B7FE5
:1035D0008093E1002091F4022F5F822F62E30E942A
:1035E0009430992309F4BEC02093F4028091DA004C
:1035F00080FF28C08091D80080FF24C08091DA002D
:103600008E7F8093DA008091D90080FFE1C080E155
:1036100089BD82E189BD09B400FEFDCF81E08093C0
:10362000020383EF99E00E946B088091F5028111FB
:1036300009C00E940D090E94D9098091E2008460AE
:103640008093E2008091E10080FF1BC08091E20046
:1036500080FF17C08091E2008E7F8093E20080910E
:10366000E20080618093E2008091D80080628093C4
:10367000D80019BC85E0809302038BEF99E00E948B
:103680006B088091E10084FF2DC08091E20084FFEF
:1036900029C080E189BD82E189BD89B5982F9170EB
:1036A00080FFFBCF8091D8008F7D8093D8008091E0
:1036B000E1008F7E8093E1008091E2008F7E809315
:1036C000E2008091E20081608093E2008091030338
:1036D000882309F487C084E0809302038FEF99E088
:1036E0000E946B088091E10083FF2BC08091E20073
:1036F00083FF27C08091E100877F8093E10082E013
:1037000080930203109203038091E1008E7F8093E7
:10371000E1008091E2008E7F8093E2008091E200E0
:1037200080618093E20042E060E080E00E94A709AF
:103730008091F00088608093F00083E09AE00E941E
:103740006B08FF91EF91BF91AF919F918F917F9106
:103750006F915F914F913F912F910F900FBE0F90FE
:103760001F9018951092F4028091F302882309F4B7
:103770003DCF809102038430C1F49091E9009F70A5
:103780002091EC00822F817020FD80E8892B92E04F
:103790009093E9009091EB0090FF04C09091EE00AF
:1037A00097FD08C08F708093E9001092F3021ECF3E
:1037B0001092F1009091E80095FDFACF9091E80009
:1037C00090FFF0CF9091E8009E779093E800EACFC9
:1037D00019BC1092020387EF99E00E946B081092C7
:1037E000F50230CF8091E30087FD93E090930203D0
:1037F00075CF0F931F930E947E18882321F01F918D
:103800000F910C949F0A0E949F0A009184021091CC
:1038100085022091860230918702600F711F821FFE
:10382000931F1F910F910895CF92DF92EF92FF9215
:103830006B017C010E947E1881110EC00E949F0ABC
:10384000C61AD70AE80AF90AC0928402D092850201
:10385000E0928602F0928702FF90EF90DF90CF9087
:10386000089578941F921FB61F9211248F939F93EF
:10387000AF93BF9380917F0290918002A0918102CB
:10388000B09182020196A11DB11D80937F02909399
:103890008002A0938102B0938202BF91AF919F9169
:1038A0008F911F901FBE1F9018952FB7F89480918D
:1038B0007F0290918002A0918102B09182022FBF7D
:1038C00008950E947E1881110C94551C0E94F91BCA
:1038D000CB0108956091AE02669570E04BE050E038
:1038E00084E091E00E945031892B19F481E08093AB
:1038F000B4020E94611C9093A9028093A802809157
:10390000B50284608093B5028091E80280FF08C010
:1039100088E992E09F938F930E9404090F900F9083
:1039200008959091AE0290FF5AC09170811141C0EC
:1039300092609093AE028091B50281608093B5024F
:103940006623F1F16091AE027091AF028091B002F6
:103950009091B1020E949A188091E80280FF0FC0F6
:103960008091AE0286951F928F938AEC91E09F938F
:103970008F930E9404090F900F900F900F90609109
:10398000AE02669570E04BE050E084E091E00E946A
:103990005031892B09F10E94B51381E08093AB026D
:1039A00020E04091B1026091B0028091AF020C948E
:1039B000AC188B3210F09465BCCF880F982BB9CF20
:1039C0008091E80280FFDBCF8091AE0286951F9246
:1039D0008F938CEA91E0CBCF0E946A1CDECF0895D2
:1039E0008091AE028695815009F48AE261E00C94E0
:1039F000911C8091AE0286958F5F8B3208F081E03A
:103A000061E00C94911C9091AE0290FF07C09695D6
:103A1000981720F0961710F40C94F91C61E00C94A0
:103A2000911C8F929F92AF92BF92CF92DF92EF92B2
:103A3000FF920F931F93CF93DF9300D000D00F928C
:103A4000CDB7DEB77C01FC0183819481892B39F0ED
:103A50001081D180812F8D218F3F09F0FDC40F90FF
:103A60000F900F900F900F90DF91CF911F910F91BA
:103A7000FF90EF90DF90CF90BF90AF909F908F908E
:103A800008950E949C0D082F682F89819A810E94B9
:103A9000DA0AE12FF0E026E0D29EE00DF11D1124BC
:103AA0003CE3039FE00DF11D1124EE0FFF1FE755CE
:103AB000FB4F05911491F7019281992309F43EC1BE
:103AC0000230FCE51F0708F4FEC106312CE51207A1
:103AD00038F098012B5F3C452930310508F0F3C1DF
:103AE0000E94C913909395028093940200313CE5A3
:103AF000130709F4F2C008F080C008309CE51907EC
:103B000009F4E1C008F04FC00430FCE51F0709F4D8
:103B1000D2C0B0F502303CE5130709F4C2C003304F
:103B20001C4509F4C4C0609194021091950284E090
:103B300090E00E947E31612F81E290E00E947E3110
:103B40000E94AD0F80917602877009F488CFF7014B
:103B50008281882309F483CF82E00F900F900F9029
:103B60000F900F90DF91CF911F910F91FF90EF90E9
:103B7000DF90CF90BF90AF909F908F900C94A71242
:103B800080919402806106309CE5190709F48CC08D
:103B900080919402886007301C4508F485C08091AC
:103BA0009402806281C0809194028D7F0C30FCE58C
:103BB0001F0709F479C070F4809194028C600A3078
:103BC0003CE5130709F470C008F481C080919402A9
:103BD0008E7F6AC080919402877F0E309CE5190722
:103BE00009F462C0809194028B7F0F301C4508F469
:103BF0005BC0809194028F7E57C00C3FFCE51F078D
:103C000009F45DC030F503313CE5130709F46DC0DC
:103C100078F401319CE5190709F463C002311C45B1
:103C200009F081CF0E94AD0F809194028F773CC044
:103C30000531FCE51F0709F460C008F474C08091E9
:103C4000950281600B3F1C4509F06DCF8093950272
:103C50006ACF01158DE5180709F44BC088F48091EF
:103C600095028D7F0E3FECE51E0781F38091950252
:103C70008E7F0F3F1C4550F3809195028360E6CF05
:103C800002302DE5120709F457C008F442C060E085
:103C900003301D4509F047CF8EE090E00E947E3151
:103CA00042CF809194028160809394023CCF8091B6
:103CB00094028260F9CF809194028460F5CF809164
:103CC00095028260C3CF809194028064EDCF0E9400
:103CD000AD0F809194028068E7CF809194028F7D30
:103CE000E3CF809194028F7BDFCF80919402837F1A
:103CF000DBCF809195028C7FA9CF8091940282FBCB
:103D0000992790F921E0922790FB82F990FB83F9A3
:103D1000CBCF80919502982F909591708E7F892BB3
:103D200090FB81F993CF0E94AD0F90919402892F5F
:103D300097FB87F98058B8CF61E0AECF80917902C8
:103D40008272F801E35CFC45E431F10508F0F7C04C
:103D5000E15DFD4C0C94D6308091E80280FF10C0EC
:103D60008091AE02809581701F928F938FE494E0D2
:103D70009F938F930E9404090F900F900F900F90C4
:103D80008091AE0280FF33C08E7F8093AE0260913F
:103D9000AE027091AF028091B0029091B1020E9488
:103DA0009A188091E80280FF0FC08091AE02817066
:103DB0001F928F9380EE93E09F938F930E9404094C
:103DC0000F900F900F900F900E94B5138091B50245
:103DD00081608093B5029FEFE0E7F2E09150E04010
:103DE000F040E1F700C000000E949514ABCE816066
:103DF0008093AE028091E80280FF0DC01F9281E0A7
:103E00008F9388E194E09F938F930E9404090F9011
:103E10000F900F900F908091AE0261E086950E9406
:103E2000911C90CE40EF5CE169EF7CE10E94200B99
:103E300089CE49EF5CE160EF7CE1F8CF43ED59E1D9
:103E40006CED79E1F3CF4CED59E163ED79E1EECF23
:103E50004BEB59E167EC79E1E9CF47EC59E16BEBCA
:103E600079E1E4CF43EA59E16FEA79E1DFCF4FEA44
:103E700059E163EA79E1DACF45EE59E166EF79E19C
:103E8000D5CF46EF59E165EE79E1D0CF61E081E031
:103E9000C6CF65E082E00E94031D54CE68E086E054
:103EA000FACF6EE089E0F7CF64E18FE0F4CF67E10D
:103EB00085E1F1CF61E088E1B2CF62E289E1EBCF49
:103EC00061E083E2ACCF01302CE5120719F10F3D20
:103ED0003CE5130789F101151C4589F50E94AD0FDA
:103EE0009FEFE4E3FCE09150E040F040E1F700C0D8
:103EF000000087E797E7909301088093000888E126
:103F00009AE00FB6F894A895809360000FBE909346
:103F10006000FFCF9091E802892F8E7F90FF816033
:103F20008093E80280FF05C088E994E00E946B0856
:103F300009CE86E894E0FACF0E941E1A03CEF7015C
:103F4000008111819923D9F1C8010E949C0DD82EBE
:103F5000682FC8010E94DA0AB8018D2D0E94240C36
:103F60008C01882EF7019280A580A2944FE0A422B4
:103F7000809176028770A1F0D92C992091F0812F41
:103F8000807F803421F080E2800F883048F082E02A
:103F90000E94A712809176028770DD24D39481114C
:103FA000D12CC12EC2943FE0C322FBE0FC1508F4E3
:103FB00040C0EC2DF0E0ED5BFD4C0C94D630C80118
:103FC0000E94B10AD82EC8CF212F2F70B22E107F99
:103FD00019F0B29420EFB2229920C9F0BB2069F009
:103FE00080E2800F883010F081100BC08091790240
:103FF000B82AB09279020E94410F802F0E9460136C
:1040000018C080917802B82AB0927802F4CF802F3D
:104010000E940313BB2069F0B094005E083010F0DA
:10402000811045C080917902B822B09279020E9435
:10403000410FEC2DE850FF0B349710F40E94140B45
:10404000DD20A9F08091760280FD11C0F701128277
:104050008595859585950E94BF12C7010E94111D07
:10406000809176028595859585950E94841285E0DC
:10407000F701DE01119601900D928A95E1F7898191
:104080009A810E94B10A9A81E981F0E026E0929F2C
:10409000E00DF11D11243CE3839FE00DF11D11247F
:1040A000EE0FFF1FE755FB4F85919491D8CC80917F
:1040B0007802B822B0927802BACF312F3F70B32E77
:1040C000107F103219F0B29490EFB922882071F06D
:1040D00081E0881661F19920B9F1AA2071F1F70108
:1040E000858180FF8ACF8F70858327C0992091F0CA
:1040F00090917A028B2D892BA11003C00E94F91296
:1041000098CFE1E0AE12FACF981709F492CF8093DE
:104110007A028FCFA11006C00E94AB0A8B2D0E949D
:10412000EE1287CFF1E0AF1609F483CFF5CF9920D7
:1041300031F025E02A1508F47CCF8B2DDFCF34E059
:104140003A1508F476CFEACFAA2041F3F9E38F12AB
:104150000DC02FEF37EE83E0215030408040E1F773
:1041600000C00000802F0E94031363CFEFE3FCE93F
:104170003197F1F7F5CF812F837009F066C0911068
:1041800058CF802F829586958770880F880F602F73
:104190006F70862E912CB12CA12C082E04C0880C97
:1041A000991CAA1CBB1C0A94D2F740E050E0BA014B
:1041B00004FF0FC04FE050E060E070E004C0440F27
:1041C000551F661F771F8A95D2F7409550956095C9
:1041D0007095812F869586958370823019F1D8F479
:1041E00000917B0210917C0220917D0230917E0231
:1041F000813069F0482959296A297B29CB01BA0104
:1042000060237123822393230E94E01212CF802A1D
:10421000912AA22AB32ACB01BA01682979298A29CD
:104220009B29F2CF482959296A297B2900917B02D1
:1042300010917C0220917D0230917E02CB01BA0167
:104240006027712782279327DFCF8695992011F069
:10425000812F8170882309F4ECCE802F829586957A
:104260008770880F880F602F6F70862E912CB12C6D
:10427000A12C082E04C0880C991CAA1CBB1C0A94F3
:10428000D2F740E050E0BA0104FF0FC04FE050E029
:1042900060E070E004C0440F551F661F771F8A95C9
:1042A000D2F74095509560957095812F86958695AB
:1042B0008370823019F1D8F40091BB021091BC02D6
:1042C0002091BD023091BE02813069F04829592900
:1042D0006A297B29CB01BA016023712382239323AE
:1042E0000E947612A6CE802A912AA22AB32ACB0156
:1042F000BA01682979298A299B29F2CF48295929A5
:104300006A297B290091BB021091BC022091BD0259
:104310003091BE02CB01BA01602771278227932713
:10432000DFCF1F70992029F0812F0E94BF12802FAC
:10433000E5CE802F0E94EE12812F0E94841279CE4A
:10434000802FF2EF8F1609F450C0F81578F020EFA7
:10435000821619F131EF831609F43FC0992009F450
:1043600067C0A1104ACE812F8F713CC093EF891690
:1043700009F440C0E4EF8E12F1CF992009F44DC04A
:104380001F71812F0E94BF1238E0139FC0011124BA
:10439000836080937602812F25C09920C9F0F4E0D4
:1043A000FA1508F446CE1F7161E070E080E090E0FD
:1043B00004C0660F771F881F991F1A95D2F70091C6
:1043C000BB021091BC022091BD023091BE02A4CF6D
:1043D00025E02A1508F42DCEE6CF812F8F71992084
:1043E00009F4ABCF0E94BF1224CE812F8F71992088
:1043F000C9F3A3CF60E070E0CB01992009F470CF3E
:104400001F7161E070E080E090E004C0660F771FEC
:10441000881F991F1A95D2F763CF81E00E94A712D7
:1044200081E08A1508F005CE82E00E94A71201CE35
:10443000AA2079F0893341F49FEFE7EEF3E0915041
:10444000E040F040E1F78CCE8FE39CE90197F1F773
:1044500087CE812F8F7171CF85E0DE01119601909B
:104460000D928A95E1F7F701228189819A812111C4
:1044700008CB0E94B10A082F0CCB1F93CF93DF9378
:1044800080911B02807FA9F480911802882389F013
:1044900080914D02D0911C0260911602709117021A
:1044A000A0911902B0911A02C62FC72316E0D813A3
:1044B00004C0DF91CF911F91089590E0109711F003
:1044C000CF3F19F401968770F2CF189F9001199F82
:1044D000300D1124F901E35EFD4F41814713F2CF06
:1044E00040814613EFCF42814111ECCF438154818B
:1044F0004A1B5B0B483C510528F780911B028F70CB
:10450000806180931B02F901EE5DFD4F80818F7009
:104510008061808386E192E00E94111DDF91CF913E
:104520001F910C94080BAF92BF92CF92DF92EF9243
:10453000FF920F931F93CF93DF93CDB7DEB76197B1
:104540000FB6F894DEBF0FBECDBF8C0185E0F80139
:10455000DE011D9601900D928A95E1F7F8018081A8
:104560009181E28026E1A22E22E0B22E6091190212
:1045700070911A026115710509F43EC1309116025D
:1045800040911702232F24232F3F09F435C1C38004
:10459000D480F0901802F601E61BF70BFF2009F417
:1045A000FBC020911B02522F507FE83CF10508F020
:1045B000BBC0511178C0FE2C491321C038131FC055
:1045C000E1101DC02F70206120931B02C5010E94C5
:1045D000111D80911B02F80185838F2D61960FB606
:1045E000F894DEBF0FBECDBFDF91CF911F910F9129
:1045F000FF90EF90DF90CF90BF90AF900895CD28BF
:1046000029F0282F29232F3F09F014C120E0F22F91
:10461000F170DF2E20FF3DC020914D0240911C0221
:1046200056E0241315C08D879E878D859E850E9438
:10463000DE0D292F22952F702230F8F0243020F53E
:104640009F70F9F0F8019581907FD9F4D12C1FC0AB
:1046500030E0529FF001539FF00D1124E35EFD4FB7
:104660006181961306C06081861303C06281E612E1
:1046700010C02F5F3F4F2770D4CF9F7011F0882359
:1046800029F3805E883010F3C8010E94111DFD2CB3
:10469000A4CFEE2009F4A1CF80911B02816080930A
:1046A0001B02F12C9ACF491312C0381310C0E1102D
:1046B0000EC0F8012583C8010E94111D86E0F80193
:1046C000A6E1B2E001900D928A95E1F786CF8D8741
:1046D0009E878D859E850E94E80D882309F1EE2036
:1046E000F9F080911B02803270F020911602309117
:1046F000170238872F831986DB86CA868C87CE01FE
:1047000007960E94111D86E0F801A6E1B2E0019033
:104710000D928A95E1F70E943D22FF24F3945DCF2C
:10472000C8010E94111DF9CF51110AC086E192E023
:104730000E94111D86E0F50111928A95E9F7B1CF2B
:1047400049130FC038130DC0E1100BC0F8012583C9
:10475000C8010E94111D86E0F50111928A95E9F7C2
:104760003CCF8D879E878D859E850E94E80D88238E
:10477000B9F2EE20A9F280911B02803220F2209142
:104780001602309117023A8329831B82DD82CC8284
:104790008E83CE010196B5CFE83CF105E0F6FE2C04
:1047A000EE2009F4BDCF491316C0381314C0809110
:1047B0001B0280FD83CF982F907F09F47FCFF801F3
:1047C0008583903F09F477CF982F907F905F8F700B
:1047D000892B858370CF8D879E878D859E850E94CE
:1047E000E80D811190CF80911B02816080931B02A4
:1047F000C8010E94111DF1CEEE2009F491CF8D87E2
:104800009E878D859E850E94E80DF82E882309F4E9
:1048100087CF86E0F801A6E1B2E001900D928A957B
:10482000E1F780911602909117020E94DE0D0E941E
:104830003D22D3CE21E02E25EACE1F93CF93DF93E6
:10484000CDB7DEB767970FB6F894DEBF0FBECDBF0A
:10485000342F4B8B252F5C8B6D8B7E8B8F8B8E89B2
:104860009F896111109278021A8A198A3D872E87D2
:104870006F87998B888B86E0FE013D96DE01179647
:1048800001900D928A95E1F7CE0107960E9493223E
:10489000882389F016E080914D0290911C028913C3
:1048A00049C067960FB6F894DEBF0FBECDBFDF914B
:1048B000CF911F91089586E0FE013796DE01119693
:1048C00001900D928A95E1F78A859B85892B11F3DA
:1048D0008F81988589238F3FE9F220911C0230E077
:1048E000C90101968770992740914D024817190612
:1048F00071F40E94AD0F10921C0210924D0286E0DE
:10490000E6E1F2E0DF011D928A95E9F7C3CF96E078
:10491000929FD001939FB00D1124A35EBD4FFE0165
:10492000319601900D929A95E1F780931C020E94B6
:10493000080BB0CF819FC0011124835E9D4F0E9460
:104940009322882309F4ADCF80914D0290E0019627
:104950008770992780934D029ECF8F929F92AF923E
:10496000BF92CF92DF92EF92FF920F931F93CF935C
:10497000DF9300D000D00F92CDB7DEB707E611E08D
:1049800088E8C82E82E0D82E4601F12CAA24A394F0
:10499000B12CD8018D918D01F894E82FE295EF703C
:1049A000F0E021A18F70A50102C0440F551F8A9528
:1049B000E2F7CA01922F982B91A392A180958923A7
:1049C00082A3789400C0E1E7F1E030E020E0E12C40
:1049D0004191A42FA295AF70B0E090968C9190E099
:1049E0004F7002C0959587954A95E2F780FD53C0B8
:1049F0008A2D022E01C0880F0A94EAF7E82A2F5F59
:104A00003F4F2630310521F7F801319780810E9410
:104A1000CA0B50EA5A95F1F7D4018C91E816E9F1E6
:104A2000EC9281E0F82ABFEF8B1A9B0AE1E00C368A
:104A30001E0709F0AECF10919302FF2081F181E0B3
:104A400080939C010E94551C90939B0180939A0136
:104A500020919A0130919B014FB7F89480917F0289
:104A600090918002A0918102B09182024FBF821B7F
:104A7000930B0697C0F0E12FF0E0E556FD4FD6010D
:104A80008D916D018193BDE8CB16B2E0DB06B9F7DD
:104A900010929C0108C080E0B1CF80E0C3CF80912C
:104AA0009C018111D5CF0E947E18E82E609193025F
:104AB000882309F455C08E010F5F1F4F85E0F80170
:104AC00011928A95E9F7862F90E0B80185569D4F9F
:104AD0000E94962D811127C080919D018F5F809348
:104AE0009D018630D8F1E0919202F0E0E556FD4F4D
:104AF00010821182128213821482F11001C0FE2CE6
:104B00008F2D0F900F900F900F900F90DF91CF91FE
:104B10001F910F91FF90EF90DF90CF90BF90AF90DB
:104B20009F908F90089510929D01A0919202B0E005
:104B3000A556BD4F9E012A5F3F4FE12C4D91F801D4
:104B400091918F01491731F0AD0141505109FA019E
:104B50009083E82E2017310789F7CFCFE12CCDCFF6
:104B600070E065567D4F8091920290E085569D4F92
:104B70000E94C52DC2CFCDB7DEB72E970FB6F894E1
:104B8000DEBF0FBECDBF84B7877F84BF0FB6F8945A
:104B9000A895809160008861809360001092600009
:104BA0000FBE80E890E00FB6F89480936100909378
:104BB00061000FBE85B7806885BF85B7806885BFF7
:104BC00087ED93E190939101809390010E940D09EC
:104BD0000E94D9098091E20084608093E200789479
:104BE000809102038823A1F01091E9001F70909139
:104BF000EC00892F817090FD80E8182B1092E9005D
:104C00008091E80083FD0E94BC0F1F701093E900A3
:104C100082E084BD93E095BD9AEF97BD80936E00CE
:104C200010928402109285021092860210928702DE
:104C30000E947E188093170180911701882309F440
:104C400028C21092120187E0809313010E947E18FF
:104C500081110E946D2D809117018091170195E0BF
:104C6000811190E09093930285E0891B80939202DA
:104C700086E60E94CA0B87E90E94CA0B86EC0E9456
:104C8000CA0B84E30E94CA0B85E30E94CA0B86EF1D
:104C90000E94CA0B87EF0E94CA0B81E30E94CA0BD5
:104CA00083E30E94CA0B82E30E94CA0B86E30E9440
:104CB000CA0BE8E8F2E082E992E0ABE9B2E01192D7
:104CC0001D928E179F07D9F790E080E00E947831FF
:104CD0008B3E9E4F11F00E941E1A0E947E18811179
:104CE00002C00E94732D0E947E18882309F4D5C14A
:104CF00083E08093DF0280FDD2C180E880930C03C3
:104D00000E94E82D6DE070E087E297E00E94E50EDA
:104D1000892B09F4C6C18BE097E00E946B0890E0F4
:104D200080E00E9478318B3E9E4F11F00E941E1A47
:104D300082E090E00E946A318093E8020E94C913E9
:104D4000909395028093940283E090E00E946A31F0
:104D5000682F70E090E080E00E94E012809196025F
:104D60008111EAC08091E80280FF14C086E798E0D4
:104D70009F938F930E9404098091E8020F900F90F7
:104D800080FF08C080E698E09F938F930E940409FB
:104D90000F900F9090E080E00E9478318B3E9E4F04
:104DA00081F08091E80280FF08C088E398E09F933B
:104DB0008F930E9404090F900F900E941E1A0E9468
:104DC000071A88E090E00E9472316093AE027093FF
:104DD000AF028093B0029093B1028091B5028360DC
:104DE0008093B5026E7FD1F48091E80280FF08C005
:104DF0008FEE97E09F938F930E9404090F900F907E
:104E00000E94071A88E090E00E9472316093AE021F
:104E10007093AF028093B0029093B1020E94250B71
:104E20008091E80280FF76C086ED97E09F938F9394
:104E30000E9404098091E8020F900F9080FF6AC0E1
:104E40008091AE0281701F928F9389EB97E09F93C0
:104E50008F930E9404098091E8020F900F900F90A9
:104E60000F9080FF57C08091AE0286951F928F935E
:104E70008EE997E09F938F930E9404098091E80246
:104E80000F900F900F900F9080FF44C08091AF0261
:104E90001F928F9384E897E09F938F930E94040959
:104EA0008091E8020F900F900F900F9080FF32C01A
:104EB0008091B0021F928F938AE697E09F938F9321
:104EC0000E9404098091E8020F900F900F900F90BC
:104ED00080FF20C08091B1021F928F9380E597E000
:104EE0009F938F930E9404098091E8020F900F9086
:104EF0000F900F9080FF0EC08091B2021F928F938F
:104F000084E397E09F938F930E9404090F900F9082
:104F10000F900F901092B4028091B502846080933C
:104F2000B5028091AE0280FF04C060E086950E94C9
:104F3000911C81E08093960280911701811106C037
:104F400084EF8093190185EF809318012091190156
:104F5000A22FA295AF70B0E091963C9191972F70DF
:104F600081E090E0BC01022E01C0660F0A94EAF7CE
:104F7000462F4095432391964C93919792963C915E
:104F80009297362B92963C93929740911801E42F7A
:104F9000E295EF70F0E031A14F70042E01C0880F50
:104FA0000A94EAF7982F9095932391A392A1892BC5
:104FB00082A390968C9190E002C0959587952A9552
:104FC000E2F7817020A130E002C0359527954A951F
:104FD000E2F792E020FF90E0892B8093BA02909153
:104FE000170181E098279093B902891B809397025B
:104FF00081E291E0909399028093980282EE99E089
:105000000E946B088BE992E05AE0580F5C87809110
:105010000203853079F48EED99E00E946B0800E17F
:1050200012E180910203853009F488C00E94AD0F1F
:105030000E94140B0E94AD24C82E81110E949F0A69
:10504000B9EEEB2EB2E0FB2E1BE9A12E12E0B12E41
:1050500010E000E0302EF501D1905F01D7017D9086
:105060007D017D10A3C00F5F1F4F0A30110591F71E
:105070008FEF8E838F8318860E94551C8160782F56
:105080009A8789874E815F8168858A850E941D2461
:10509000B6C087E080931201D7CD80E02ACE80E2AF
:1050A0002DCE8091DF0263E070E081FD09C088E0D1
:1050B00097E00E94E50E892B61F082EE96E02DCEFE
:1050C0008FED96E00E94E50E892B19F087EC96E0B3
:1050D00024CE6DE070E08AEB96E00E94E50E892B0D
:1050E00019F083EA96E019CE0E949F0A605A754132
:1050F0008F4F9F4F6093E1027093E2028093E3022F
:105100009093E402EFE0F3E080E092E0DF019C01A5
:105110001D9221503040E1F7F0931605E0931505FC
:105120008FEF9FEF90930E0380930D0381E08093A8
:10513000E6028093E5021092E002F1CD8091020335
:10514000843021F110929A0288E190E0A0E40FB639
:10515000F894A895809360000FBEA093600083B779
:10516000817F846083BF83B7816083BF7894889593
:1051700083B78E7F83BF0FB6F894A89580916000A7
:10518000886180936000109260000FBE80910103DF
:10519000882309F446CF0E94AD24EBE9F2E0819127
:1051A0008111A6C3BC85BE13FACF3BCF8091E80224
:1051B00081FD98C17D24812C99249394872D892188
:1051C00009F4C4C10E947E18882399F089823A822A
:1051D000D92081E009F480E08B830E94551C816016
:1051E000782F9D838C8349815A816B818D810E94A8
:1051F0001D24F801E751FD4F80819826908280910F
:10520000B402882309F476C08091B302E091AE0223
:10521000E695E81BE093AA02823009F09DC1F0E018
:10522000EB51F74FE4910E2F10E0FAE5EF2EF8E185
:10523000FF2E8091AB02882361F01092AB020E9496
:10524000611C9093A9028093A8021092AD02109263
:10525000AC020E94611C2091A8023091A902DC01DD
:10526000A21BB30B9D012F3F3F4708F043C0209185
:10527000A702222311F11092A7022091A5023091DA
:10528000A602821B930B8F3F9F47B8F4205D3A48DC
:105290003093A6022093A5028091E80280FF08C007
:1052A0008BEA98E09F938F930E9404090F900F90D0
:1052B0008091B50288608093B502A090AC02B09056
:1052C000AD02E091A802F091A9020E0F1F1F1093EA
:1052D000A9020093A80288EA92E0F701099580915B
:1052E000AC029091AD02892B29F4AB2819F081E032
:1052F0008093A7028091BA02E82FEE0FEE0F809103
:105300001901A82FA295AF70B0E090962C9130E0D3
:105310008F7002C0359527958A95E2F72170332763
:1053200090911801A92FA295AF70B0E090964C9182
:1053300050E09F7002C0559547959A95E2F7CA01D3
:105340008170992740FF02C082E090E0822B8E2B73
:105350008093BA021091B9028F70E82FF0E0E958FB
:10536000FE4F80819091B802890F8093B802D12CB2
:1053700082307CF0E12F012E000CFF0BEA54FD4F30
:1053800080818F5F808360E0812F0E947B14DD2409
:10539000D3948091B8028F3F7CF4E12F012E000C52
:1053A000FF0BEA54FD4F80818150808361E0812FA3
:1053B0000E947B14DD24D3948091B802082E000C47
:1053C000990B62E070E00E94C2308093B802D11065
:1053D0000E94120B8091E602882309F46DC18FE0D0
:1053E00093E090931605809315050E947E188823FC
:1053F00009F49CC183E199E00E94A50E8DE099E03B
:105400000E94A50E81E00E94B30E8CE099E00E94FC
:10541000A50E81E00E94B30E89E099E00E94A50EDE
:1054200083E099E00E94A50E81E00E94B30E4091B6
:10543000BB025091BC026091BD027091BE02CB01D3
:10544000AA27BB270097A105B10509F4F1C0AC015B
:10545000BD0180E1052F162F272F332701151105D8
:105460002105310519F0885FB901A8018A019B0166
:10547000A4E03695279517950795AA95D1F70115BC
:1054800011052105310519F08C5FB901A8018A01C8
:105490009B01F2E03695279517950795FA95D1F778
:1054A000011511052105310519F08E5FB901A8011B
:1054B0007695679557954795452B462B472B09F0D1
:1054C0008F5F813009F42CC1882309F4B3C0823086
:1054D00009F429C18CEE98E00E94A50E81E00E949B
:1054E000B30EACC08CE998E00E946B08ABE98A2E41
:1054F000A2E09A2E512C412C5F924F92E7E9F8E0FE
:10550000FF93EF930E94040984E998E00E946B08DE
:10551000D4018D914D010E940C0E1F928F93EFE8E4
:10552000F8E0FF93EF930E9404098DE898E00E9451
:105530006B083FEF431A530A0FB6F894DEBF0FBE55
:10554000CDBF5AE045165104B9F634CE8394990C78
:1055500086E0881233CE87CD863059F4F0E0EE51E4
:10556000F74FE4910E2F10E0EEE6EE2EE8E1FE2E6E
:1055700060CE893061F4E695F0E0E152F74FE491B6
:105580000E2F10E07EEBE72E75E1F72E52CE8F3016
:1055900061F4E695F0E0E452F74FE4910E2F10E04D
:1055A0006BEFE62E65E1F62E44CE853159F4F0E03E
:1055B000E752F74FE4910E2F10E054E9E52E56E143
:1055C000F52E37CE08E210E02BE1E22E27E1F22E95
:1055D000883109F42ECE833249F4E7EDF8E00591E5
:1055E000149141E0E42E48E1F42E23CE04EF11E0C3
:1055F0009BEAE92E97E1F92E843209F41ACE85321E
:1056000081F48E2F63E00E949430E92FF0E0EC5299
:10561000F74FE4910E2F10E030EEE32E34E1F32E3D
:1056200008CE00ED17E088E9E82E8AE0F82E01CEDA
:1056300080E010CF8DEF98E00E94A50E89EE98E0F3
:105640000E94A50E8091E602882371F020910D033F
:1056500030910E032115310539F08091E00261E0AF
:1056600070E0882309F466C08091E502882321F167
:105670000E949F0A0091E1021091E2022091E30250
:105680003091E402601B710B820B930B6F3F7F4FD5
:105690008F4F9F4788F48091E602882369F062E08B
:1056A00070E082EC99E00E94E50E892B09F41DC19F
:1056B0008DEA99E00E946B08C11001C0D1100E94D0
:1056C000150F0E94140B9091E702891709F49FCCE3
:1056D0000E94140B182F8093E7028091E80282FF4A
:1056E00096CC80FF94CC8BEC99E00E946B08809163
:1056F000E80280FF8CCC1F921F9386EC99E09F9369
:105700008F930E9404098091E8020F900F900F90F0
:105710000F9080FF7CCC84EC99E00E946B0877CCE2
:1057200088EF98E089CF82EF98E086CF86E199E014
:1057300087CF8F5F082F10E07B01082E02C0EE0C90
:10574000FF1C0A94E2F7A9014E215F21452B89F342
:105750009091DF0290FD21C08295880F8076809322
:105760001C019801369527953695279520931F01A2
:10577000815E80931D011092200124E630E047E015
:1057800050E06AE171E088E70E94792E892B99F058
:105790008AE899E00E946B0867CF880F880F880F0E
:1057A00080931C0110921F01895F80931D0183E08B
:1057B00080932001E2CFA80125E0440F551F2A95D0
:1057C000E1F78091DF0280FD10C0415F5C4F04E68D
:1057D00010E020E230E060E488E70E94A02E892BF0
:1057E00009F474C081E799E0D5CFEFEBF2E080E2F5
:1057F000DF011D928A95E9F7EBE8F1E0FE87ED877E
:1058000007E811E08FE8282E81E0382E97E0A92ED6
:1058100099249394AD85BE852D91BE87AD87F801FF
:1058200041908F01440E552E511CC201815F9C4F47
:105830002C01E22FF0E0E154FD4F30E020E09A2D02
:10584000921B9B87B92C022E01C0BB0C0A94EAF76D
:10585000320190E0D3018D913D018B216B85691B55
:105860006770862E062E000C770BB82F01C0BB0F79
:105870008A94EAF78B2E7195619571096770772785
:1058800001C086956A95EAF7882A8081882A8082F5
:105890009F5F9830F9F62F5F3F4F319628303105E2
:1058A00071F6ED85FE852E163F0609F0B3CF04E6AE
:1058B00010E020E230E04FEB52E060E488E70E9425
:1058C000A02E892B19F086E599E064CF0E94150F70
:1058D000E094F09480910D0390910E03E822F92258
:1058E000F0920E03E0920D03BFCE1092E502E4CEDB
:1058F00009BD19BD09B400FEFDCF8091D8008F7D90
:105900008093D8008091E00082608093E0008091D5
:10591000E00081FDFCCF0E94AD0F83CB1F921FB62C
:105920001F9211248F939F93AF93BF9380919A02FC
:10593000811113C080917F0290918002A091810219
:10594000B09182024196A11DB11D80937F02909378
:105950008002A0938102B0938202BF91AF919F9188
:105960008F911F901FBE1F901895FF920F931F934A
:10597000CF93DF93D09197020D2F10E00A541D4F63
:10598000FC01C081F8018081C81BFC2E80E01F143F
:105990007CF09C2FC7FD90E0C91BC11114C0882367
:1059A000E9F0DF91CF911F910F91FF900C94120BB2
:1059B000FA94F80180818F5F808360E08D2F0E94D0
:1059C0007B1481E0E4CFCF5FF80180818150808338
:1059D00061E08D2F0E947B1481E0DFCFDF91CF91BA
:1059E0001F910F91FF900895E091B902F0E0EA5401
:1059F000FD4F2081FC01208308951F93CF93DF93F7
:105A0000EC01162F8F8180FF0BC088819091AE0230
:105A100080FF21C091609093AE0286950E94911CF8
:105A20008F8181FF06C0212F4B816A8189810E946D
:105A3000AC188F8182FF05C08E81882391F10E946E
:105A40006A1C8F8183FF03C081E08093AB02DF91EA
:105A5000CF911F9108959E7F9093AE028091E802AE
:105A600080FF0CC01F921F928EE592E09F938F9350
:105A70000E9404090F900F900F900F900E94B51391
:105A80008091B50281608093B5022FEF80E792E0AC
:105A9000215080409040E1F700C000000E94951422
:105AA000BFCF0E94B513CDCF25E0EEEAF2E0DC01D6
:105AB00001900D922A95E1F72091B3023091B40242
:105AC0004091B502FC0125833683478308951092E7
:105AD000B50208958091B502089562E070E08CE20D
